:100000007851760908760808760C08760408760692
:100010000876020876030876019002B5E493514809
:100020005162A3600280F59002BBE49360075155D2
:100030005162A380F575A0FF758000E5A0540FB450
:100040000FF6120262E5A0540FB40F0280F4120200
:1000500062E5A0540FB40F0280E87580FEE5A0545D
:100060000FB40F217580FDE5A0540FB40F1C7580EF
:10007000FBE5A0540FB40F177580F7E5A0540FB43B
:100080000F120200429002A5800F9002A9800A90F0
:1000900002AD80059002B18000135003A380FAE402
:1000A00093FF74C051485162BF01179002CCE49392
:1000B000600751555162A380F575602012026F02EE
:1000C00003DCBF02179002DDE493600751555162D3
:1000D000A380F575604012026F0203DCBF03179026
:1000E00002EEE493600751555162A380F57560609C
:1000F00012026F0203DCBF04179002FFE493600753
:1001000051555162A380F575608012026F0203DCC5
:10011000BF0517900310E493600751555162A38007
:10012000F57560A012026F0203DCBF061790032171
:10013000E493600751555162A380F57560C01202C7
:100140006F0203DCBF0717900332E4936007515539
:100150005162A380F57560E012026F0203DCBF08F4
:1001600017900343E493600751555162A380F575DE
:1001700060FF12026F0203DCBF0917900354E4937F
:10018000600751555162A380F575602012028A0202
:1001900003DCBF0A17900365E49360075155516271
:1001A000A380F575604012028A0203DCBF0B179032
:1001B0000376E493600751555162A380F575606042
:1001C00012028A0203DCBF0C17900387E4936007D6
:1001D00051555162A380F575608012028A0203DCDA
:1001E000BF0D17900398E493600751555162A380A7
:1001F000F57560A012028A0203DCBF0E179003A9F6
:10020000E493600751555162A380F57560C01202F6
:100210008A0203DCBF0F179003BAE49360075155BD
:100220005162A380F57560E012028A0203DCBF1000
:10023000149003CBE493600751555162A380F57588
:1002400060FF12028A0203DCF5B0C295C296D29713
:100250005162C29722F5B0D295C296D2975162C22E
:10026000972279017A057B64DBFEDAFAD9F62275EA
:100270006102856062756308785186900812026297
:10028000D563F7D562EFD561E922756102856062B9
:100290007563087858869018120262D563F7D562A4
:1002A000EFD561E9220102030405060708090A0BDC
:1002B0000C0D0E0F10380E01068000312F324D4FFD
:1002C00044452075535445505045520053544550B1
:1002D0003A312020524F543A34352044005354458B
:1002E000503A322020524F543A393020440053546F
:1002F00045503A3320524F543A313335204400535D
:100300005445503A3420524F543A3138302044004A
:10031000535445503A3520524F543A3232352044E6
:1003200000535445503A3620524F543A3237302019
:100330004400535445503A3720524F543A333135E4
:10034000204400535445503A3820524F543A3336E3
:1003500030204400535445503A312020524F543AF3
:100360002D34354400535445503A322020524F54D6
:100370003A2D39304400535445503A3320524F54AB
:100380003A2D3133354400535445503A3420524FBE
:10039000543A2D3138304400535445503A352052A8
:1003A0004F543A2D3232354400535445503A36209A
:1003B000524F543A2D3237304400535445503A3757
:1003C00020524F543A2D3331354400535445503A5E
:0F03D0003820524F543A2D333630440002003556
:00000001FF
