:100000007851760808760C08760408760608760299
:1000100008760308760108760990024FE493511898
:100020005132A3600280F5900255E4936007512598
:100030005132A380F575A0FF758000E5A0540FB480
:100040000FF6120232E5A0540FB40F0280F4120230
:1000500032E5A0540FB40F0280E87580FEE5A0548D
:100060000FB40F217580FDE5A0540FB40F1C7580EF
:10007000FBE5A0540FB40F177580F7E5A0540FB43B
:100080000F1202004290023F800F900243800A90BC
:100090000247800590024B8000135003A380FAE4CE
:1000A00093FF74C051185132BF0114900266E4935B
:1000B000600751255132A380F5855190020376BF28
:1000C0000214900277E493600751255132A380F522
:1000D000855290020376BF0314900288E493600770
:1000E00051255132A380F5855390020376BF041445
:1000F000900299E493600751255132A380F585540D
:1001000090020376BF05149002AAE493600751257C
:100110005132A380F5855590020376BF06149002F4
:10012000BBE493600751255132A380F585569002B8
:100130000376BF07149002CCE49360075125513237
:10014000A380F5855790020376BF08149002DDE482
:1001500093600751255132A380F5855890020376AC
:10016000BF09149002EEE493600751255132A38039
:10017000F5855790020376BF0A149002FFE493605E
:100180000751255132A380F5855690020376BF0BA7
:1001900014900310E493600751255132A380F58534
:1001A0005590020376BF0C14900321E4936007512D
:1001B000255132A380F5855490020376BF0D14902B
:1001C0000332E493600751255132A380F5855390A3
:1001D000020376BF0E14900343E493600751255148
:1001E00032A380F5855290020376BF0F149003541A
:1001F000E493600751255132A380F58551900203A5
:1002000076BF1011900365E493600751255132A326
:1002100080F5855890020376F5B0C295C296D297C4
:100220005132C29722F5B0D295C296D2975132C2BE
:10023000972279197A057B64DBFEDAFAD9F6220176
:1002400002030405060708090A0B0C0D0E0F1038EF
:100250000E01068000312F324D4F44452075535416
:10026000455050455200535445503A312020524F8A
:10027000543A3435204400535445503A32202052E9
:100280004F543A3930204400535445503A332052A9
:100290004F543A313335204400535445503A3420BA
:1002A000524F543A313830204400535445503A3577
:1002B00020524F543A323235204400535445503A7C
:1002C0003620524F543A3237302044005354455070
:1002D0003A3720524F543A33313520440053544575
:1002E000503A3820524F543A333630204400535459
:1002F00045503A312020524F543A2D343544005362
:100300005445503A322020524F543A2D393044004F
:10031000535445503A3320524F543A2D31333544DB
:1003200000535445503A3420524F543A2D3138300E
:100330004400535445503A3520524F543A2D3232EE
:10034000354400535445503A3620524F543A2D32DA
:1003500037304400535445503A3720524F543A2DC9
:100360003331354400535445503A3820524F543AB3
:090370002D333630440002003543
:00000001FF
